{
  "address": "0xe04c5Fa129A6804803B49636F9A1f171A39Ce1B7",
  "abi": [
    {
      "inputs": [
        {
          "internalType": "address",
          "name": "admin",
          "type": "address"
        },
        {
          "internalType": "string",
          "name": "name",
          "type": "string"
        },
        {
          "internalType": "string",
          "name": "symbol",
          "type": "string"
        }
      ],
      "stateMutability": "nonpayable",
      "type": "constructor"
    },
    {
      "anonymous": false,
      "inputs": [
        {
          "indexed": true,
          "internalType": "address",
          "name": "owner",
          "type": "address"
        },
        {
          "indexed": true,
          "internalType": "address",
          "name": "approved",
          "type": "address"
        },
        {
          "indexed": true,
          "internalType": "uint256",
          "name": "tokenId",
          "type": "uint256"
        }
      ],
      "name": "Approval",
      "type": "event"
    },
    {
      "anonymous": false,
      "inputs": [
        {
          "indexed": true,
          "internalType": "address",
          "name": "owner",
          "type": "address"
        },
        {
          "indexed": true,
          "internalType": "address",
          "name": "operator",
          "type": "address"
        },
        {
          "indexed": false,
          "internalType": "bool",
          "name": "approved",
          "type": "bool"
        }
      ],
      "name": "ApprovalForAll",
      "type": "event"
    },
    {
      "anonymous": false,
      "inputs": [
        {
          "indexed": true,
          "internalType": "bytes32",
          "name": "role",
          "type": "bytes32"
        },
        {
          "indexed": true,
          "internalType": "bytes32",
          "name": "previousAdminRole",
          "type": "bytes32"
        },
        {
          "indexed": true,
          "internalType": "bytes32",
          "name": "newAdminRole",
          "type": "bytes32"
        }
      ],
      "name": "RoleAdminChanged",
      "type": "event"
    },
    {
      "anonymous": false,
      "inputs": [
        {
          "indexed": true,
          "internalType": "bytes32",
          "name": "role",
          "type": "bytes32"
        },
        {
          "indexed": true,
          "internalType": "address",
          "name": "account",
          "type": "address"
        },
        {
          "indexed": true,
          "internalType": "address",
          "name": "sender",
          "type": "address"
        }
      ],
      "name": "RoleGranted",
      "type": "event"
    },
    {
      "anonymous": false,
      "inputs": [
        {
          "indexed": true,
          "internalType": "bytes32",
          "name": "role",
          "type": "bytes32"
        },
        {
          "indexed": true,
          "internalType": "address",
          "name": "account",
          "type": "address"
        },
        {
          "indexed": true,
          "internalType": "address",
          "name": "sender",
          "type": "address"
        }
      ],
      "name": "RoleRevoked",
      "type": "event"
    },
    {
      "anonymous": false,
      "inputs": [
        {
          "indexed": true,
          "internalType": "address",
          "name": "from",
          "type": "address"
        },
        {
          "indexed": true,
          "internalType": "address",
          "name": "to",
          "type": "address"
        },
        {
          "indexed": true,
          "internalType": "uint256",
          "name": "tokenId",
          "type": "uint256"
        }
      ],
      "name": "Transfer",
      "type": "event"
    },
    {
      "inputs": [],
      "name": "DEFAULT_ADMIN_ROLE",
      "outputs": [
        {
          "internalType": "bytes32",
          "name": "",
          "type": "bytes32"
        }
      ],
      "stateMutability": "view",
      "type": "function"
    },
    {
      "inputs": [],
      "name": "MINTER_ROLE",
      "outputs": [
        {
          "internalType": "bytes32",
          "name": "",
          "type": "bytes32"
        }
      ],
      "stateMutability": "view",
      "type": "function"
    },
    {
      "inputs": [],
      "name": "TRANSFER_APPROVER_ROLE",
      "outputs": [
        {
          "internalType": "bytes32",
          "name": "",
          "type": "bytes32"
        }
      ],
      "stateMutability": "view",
      "type": "function"
    },
    {
      "inputs": [
        {
          "internalType": "address",
          "name": "to",
          "type": "address"
        },
        {
          "internalType": "uint256",
          "name": "tokenId",
          "type": "uint256"
        }
      ],
      "name": "approve",
      "outputs": [],
      "stateMutability": "nonpayable",
      "type": "function"
    },
    {
      "inputs": [
        {
          "internalType": "uint256",
          "name": "tokenId",
          "type": "uint256"
        },
        {
          "internalType": "address",
          "name": "recipient",
          "type": "address"
        }
      ],
      "name": "approveTransfer",
      "outputs": [],
      "stateMutability": "nonpayable",
      "type": "function"
    },
    {
      "inputs": [
        {
          "internalType": "uint256",
          "name": "",
          "type": "uint256"
        }
      ],
      "name": "approvedTransferRecipients",
      "outputs": [
        {
          "internalType": "address",
          "name": "",
          "type": "address"
        }
      ],
      "stateMutability": "view",
      "type": "function"
    },
    {
      "inputs": [
        {
          "internalType": "address",
          "name": "owner",
          "type": "address"
        }
      ],
      "name": "balanceOf",
      "outputs": [
        {
          "internalType": "uint256",
          "name": "",
          "type": "uint256"
        }
      ],
      "stateMutability": "view",
      "type": "function"
    },
    {
      "inputs": [],
      "name": "baseURI",
      "outputs": [
        {
          "internalType": "string",
          "name": "",
          "type": "string"
        }
      ],
      "stateMutability": "view",
      "type": "function"
    },
    {
      "inputs": [
        {
          "internalType": "uint256",
          "name": "tokenId",
          "type": "uint256"
        }
      ],
      "name": "getApproved",
      "outputs": [
        {
          "internalType": "address",
          "name": "",
          "type": "address"
        }
      ],
      "stateMutability": "view",
      "type": "function"
    },
    {
      "inputs": [
        {
          "internalType": "bytes32",
          "name": "role",
          "type": "bytes32"
        }
      ],
      "name": "getRoleAdmin",
      "outputs": [
        {
          "internalType": "bytes32",
          "name": "",
          "type": "bytes32"
        }
      ],
      "stateMutability": "view",
      "type": "function"
    },
    {
      "inputs": [
        {
          "internalType": "bytes32",
          "name": "role",
          "type": "bytes32"
        },
        {
          "internalType": "uint256",
          "name": "index",
          "type": "uint256"
        }
      ],
      "name": "getRoleMember",
      "outputs": [
        {
          "internalType": "address",
          "name": "",
          "type": "address"
        }
      ],
      "stateMutability": "view",
      "type": "function"
    },
    {
      "inputs": [
        {
          "internalType": "bytes32",
          "name": "role",
          "type": "bytes32"
        }
      ],
      "name": "getRoleMemberCount",
      "outputs": [
        {
          "internalType": "uint256",
          "name": "",
          "type": "uint256"
        }
      ],
      "stateMutability": "view",
      "type": "function"
    },
    {
      "inputs": [
        {
          "internalType": "bytes32",
          "name": "role",
          "type": "bytes32"
        },
        {
          "internalType": "address",
          "name": "account",
          "type": "address"
        }
      ],
      "name": "grantRole",
      "outputs": [],
      "stateMutability": "nonpayable",
      "type": "function"
    },
    {
      "inputs": [
        {
          "internalType": "bytes32",
          "name": "role",
          "type": "bytes32"
        },
        {
          "internalType": "address",
          "name": "account",
          "type": "address"
        }
      ],
      "name": "hasRole",
      "outputs": [
        {
          "internalType": "bool",
          "name": "",
          "type": "bool"
        }
      ],
      "stateMutability": "view",
      "type": "function"
    },
    {
      "inputs": [
        {
          "internalType": "address",
          "name": "owner",
          "type": "address"
        },
        {
          "internalType": "address",
          "name": "operator",
          "type": "address"
        }
      ],
      "name": "isApprovedForAll",
      "outputs": [
        {
          "internalType": "bool",
          "name": "",
          "type": "bool"
        }
      ],
      "stateMutability": "view",
      "type": "function"
    },
    {
      "inputs": [],
      "name": "mint",
      "outputs": [],
      "stateMutability": "nonpayable",
      "type": "function"
    },
    {
      "inputs": [],
      "name": "name",
      "outputs": [
        {
          "internalType": "string",
          "name": "",
          "type": "string"
        }
      ],
      "stateMutability": "view",
      "type": "function"
    },
    {
      "inputs": [
        {
          "internalType": "uint256",
          "name": "tokenId",
          "type": "uint256"
        }
      ],
      "name": "ownerOf",
      "outputs": [
        {
          "internalType": "address",
          "name": "",
          "type": "address"
        }
      ],
      "stateMutability": "view",
      "type": "function"
    },
    {
      "inputs": [
        {
          "internalType": "bytes32",
          "name": "role",
          "type": "bytes32"
        },
        {
          "internalType": "address",
          "name": "account",
          "type": "address"
        }
      ],
      "name": "renounceRole",
      "outputs": [],
      "stateMutability": "nonpayable",
      "type": "function"
    },
    {
      "inputs": [
        {
          "internalType": "uint256",
          "name": "tokenId",
          "type": "uint256"
        }
      ],
      "name": "revokeApproval",
      "outputs": [],
      "stateMutability": "nonpayable",
      "type": "function"
    },
    {
      "inputs": [
        {
          "internalType": "bytes32",
          "name": "role",
          "type": "bytes32"
        },
        {
          "internalType": "address",
          "name": "account",
          "type": "address"
        }
      ],
      "name": "revokeRole",
      "outputs": [],
      "stateMutability": "nonpayable",
      "type": "function"
    },
    {
      "inputs": [
        {
          "internalType": "address",
          "name": "from",
          "type": "address"
        },
        {
          "internalType": "address",
          "name": "to",
          "type": "address"
        },
        {
          "internalType": "uint256",
          "name": "tokenId",
          "type": "uint256"
        }
      ],
      "name": "safeTransferFrom",
      "outputs": [],
      "stateMutability": "nonpayable",
      "type": "function"
    },
    {
      "inputs": [
        {
          "internalType": "address",
          "name": "from",
          "type": "address"
        },
        {
          "internalType": "address",
          "name": "to",
          "type": "address"
        },
        {
          "internalType": "uint256",
          "name": "tokenId",
          "type": "uint256"
        },
        {
          "internalType": "bytes",
          "name": "_data",
          "type": "bytes"
        }
      ],
      "name": "safeTransferFrom",
      "outputs": [],
      "stateMutability": "nonpayable",
      "type": "function"
    },
    {
      "inputs": [
        {
          "internalType": "address",
          "name": "operator",
          "type": "address"
        },
        {
          "internalType": "bool",
          "name": "approved",
          "type": "bool"
        }
      ],
      "name": "setApprovalForAll",
      "outputs": [],
      "stateMutability": "nonpayable",
      "type": "function"
    },
    {
      "inputs": [
        {
          "internalType": "string",
          "name": "_baseURI",
          "type": "string"
        }
      ],
      "name": "setBaseURI",
      "outputs": [],
      "stateMutability": "nonpayable",
      "type": "function"
    },
    {
      "inputs": [
        {
          "internalType": "bytes4",
          "name": "interfaceId",
          "type": "bytes4"
        }
      ],
      "name": "supportsInterface",
      "outputs": [
        {
          "internalType": "bool",
          "name": "",
          "type": "bool"
        }
      ],
      "stateMutability": "view",
      "type": "function"
    },
    {
      "inputs": [],
      "name": "symbol",
      "outputs": [
        {
          "internalType": "string",
          "name": "",
          "type": "string"
        }
      ],
      "stateMutability": "view",
      "type": "function"
    },
    {
      "inputs": [
        {
          "internalType": "uint256",
          "name": "_tokenId",
          "type": "uint256"
        }
      ],
      "name": "tokenURI",
      "outputs": [
        {
          "internalType": "string",
          "name": "",
          "type": "string"
        }
      ],
      "stateMutability": "view",
      "type": "function"
    },
    {
      "inputs": [
        {
          "internalType": "address",
          "name": "from",
          "type": "address"
        },
        {
          "internalType": "address",
          "name": "to",
          "type": "address"
        },
        {
          "internalType": "uint256",
          "name": "tokenId",
          "type": "uint256"
        }
      ],
      "name": "transferFrom",
      "outputs": [],
      "stateMutability": "nonpayable",
      "type": "function"
    }
  ],
  "transactionHash": "0x876ec85de44f6721b8eb96983f58ef24e7d164967bd0c79e705bf8906f6aac04",
  "args": [
    "0x1885545B12a41d5F07252fE319Ef9b5a70d4732A",
    "Outliers",
    "OUTLIER"
  ],
  "numDeployments": 1,
  "solcInputHash": "1e43ef9f5c7c6945f1346665add7e910",
  "bytecode": "0x60806040523480156200001157600080fd5b50604051620047203803806200472083398181016040528101906200003791906200047e565b828282818181600090805190602001906200005492919062000345565b5080600190805190602001906200006d92919062000345565b505050620000856000801b84620000c360201b60201c565b620000b77fd2fe1e02027faf1843059d68959467a56049fe5514b17ab609520fb3da60476884620000c360201b60201c565b505050505050620006c4565b620000da82826200010b60201b620010f31760201c565b620001068160076000858152602001908152602001600020620001fd60201b620011d41790919060201c565b505050565b6200011d82826200023560201b60201c565b620001f95760016006600084815260200190815260200160002060000160008373ffffffffffffffffffffffffffffffffffffffff1673ffffffffffffffffffffffffffffffffffffffff16815260200190815260200160002060006101000a81548160ff0219169083151502179055506200019e620002a060201b60201c565b73ffffffffffffffffffffffffffffffffffffffff168173ffffffffffffffffffffffffffffffffffffffff16837f2f8788117e7eff1d82e926ec794901d17c78024a50270940304540a733656f0d60405160405180910390a45b5050565b60006200022d836000018373ffffffffffffffffffffffffffffffffffffffff1660001b620002a860201b60201c565b905092915050565b60006006600084815260200190815260200160002060000160008373ffffffffffffffffffffffffffffffffffffffff1673ffffffffffffffffffffffffffffffffffffffff16815260200190815260200160002060009054906101000a900460ff16905092915050565b600033905090565b6000620002bc83836200032260201b60201c565b620003175782600001829080600181540180825580915050600190039060005260206000200160009091909190915055826000018054905083600101600084815260200190815260200160002081905550600190506200031c565b600090505b92915050565b600080836001016000848152602001908152602001600020541415905092915050565b8280546200035390620005cf565b90600052602060002090601f016020900481019282620003775760008555620003c3565b82601f106200039257805160ff1916838001178555620003c3565b82800160010185558215620003c3579182015b82811115620003c2578251825591602001919060010190620003a5565b5b509050620003d29190620003d6565b5090565b5b80821115620003f1576000816000905550600101620003d7565b5090565b60006200040c62000406846200052f565b62000506565b9050828152602081018484840111156200042557600080fd5b6200043284828562000599565b509392505050565b6000815190506200044b81620006aa565b92915050565b600082601f8301126200046357600080fd5b815162000475848260208601620003f5565b91505092915050565b6000806000606084860312156200049457600080fd5b6000620004a4868287016200043a565b935050602084015167ffffffffffffffff811115620004c257600080fd5b620004d08682870162000451565b925050604084015167ffffffffffffffff811115620004ee57600080fd5b620004fc8682870162000451565b9150509250925092565b60006200051262000525565b905062000520828262000605565b919050565b6000604051905090565b600067ffffffffffffffff8211156200054d576200054c6200066a565b5b620005588262000699565b9050602081019050919050565b6000620005728262000579565b9050919050565b600073ffffffffffffffffffffffffffffffffffffffff82169050919050565b60005b83811015620005b95780820151818401526020810190506200059c565b83811115620005c9576000848401525b50505050565b60006002820490506001821680620005e857607f821691505b60208210811415620005ff57620005fe6200063b565b5b50919050565b620006108262000699565b810181811067ffffffffffffffff821117156200063257620006316200066a565b5b80604052505050565b7f4e487b7100000000000000000000000000000000000000000000000000000000600052602260045260246000fd5b7f4e487b7100000000000000000000000000000000000000000000000000000000600052604160045260246000fd5b6000601f19601f8301169050919050565b620006b58162000565565b8114620006c157600080fd5b50565b61404c80620006d46000396000f3fe608060405234801561001057600080fd5b50600436106101cf5760003560e01c806370a0823111610104578063b1e130fc116100a2578063d539139311610071578063d53913931461053c578063d547741f1461055a578063e985e9c514610576578063ecb4e371146105a6576101cf565b8063b1e130fc146104a4578063b88d4fde146104c0578063c87b56dd146104dc578063ca15c8731461050c576101cf565b806395d89b41116100de57806395d89b4114610430578063a217fddf1461044e578063a22cb4651461046c578063a408685414610488576101cf565b806370a08231146103a05780639010d07c146103d057806391d1485414610400576101cf565b80632f2ff15d1161017157806355f804b31161014b57806355f804b314610318578063582e9732146103345780636352211e146103525780636c0360eb14610382576101cf565b80632f2ff15d146102c457806336568abe146102e057806342842e0e146102fc576101cf565b8063095ea7b3116101ad578063095ea7b3146102525780631249c58b1461026e57806323b872dd14610278578063248a9ca314610294576101cf565b806301ffc9a7146101d457806306fdde0314610204578063081812fc14610222575b600080fd5b6101ee60048036038101906101e99190612cdd565b6105d6565b6040516101fb91906132d7565b60405180910390f35b61020c6105e8565b604051610219919061330d565b60405180910390f35b61023c60048036038101906102379190612d70565b61067a565b6040516102499190613270565b60405180910390f35b61026c60048036038101906102679190612c00565b6106ff565b005b610276610817565b005b610292600480360381019061028d9190612afa565b6108de565b005b6102ae60048036038101906102a99190612c3c565b61093e565b6040516102bb91906132f2565b60405180910390f35b6102de60048036038101906102d99190612c65565b61095e565b005b6102fa60048036038101906102f59190612c65565b61097f565b005b61031660048036038101906103119190612afa565b610a02565b005b610332600480360381019061032d9190612d2f565b610a22565b005b61033c610a4a565b60405161034991906132f2565b60405180910390f35b61036c60048036038101906103679190612d70565b610a6e565b6040516103799190613270565b60405180910390f35b61038a610b20565b604051610397919061330d565b60405180910390f35b6103ba60048036038101906103b59190612a95565b610bae565b6040516103c7919061358f565b60405180910390f35b6103ea60048036038101906103e59190612ca1565b610c66565b6040516103f79190613270565b60405180910390f35b61041a60048036038101906104159190612c65565b610c95565b60405161042791906132d7565b60405180910390f35b610438610d00565b604051610445919061330d565b60405180910390f35b610456610d92565b60405161046391906132f2565b60405180910390f35b61048660048036038101906104819190612bc4565b610d99565b005b6104a2600480360381019061049d9190612d99565b610daf565b005b6104be60048036038101906104b99190612d70565b610e30565b005b6104da60048036038101906104d59190612b49565b610e94565b005b6104f660048036038101906104f19190612d70565b610ef6565b604051610503919061330d565b60405180910390f35b61052660048036038101906105219190612c3c565b610fc3565b604051610533919061358f565b60405180910390f35b610544610fe7565b60405161055191906132f2565b60405180910390f35b610574600480360381019061056f9190612c65565b61100b565b005b610590600480360381019061058b9190612abe565b61102c565b60405161059d91906132d7565b60405180910390f35b6105c060048036038101906105bb9190612d70565b6110c0565b6040516105cd9190613270565b60405180910390f35b60006105e182611204565b9050919050565b6060600080546105f790613888565b80601f016020809104026020016040519081016040528092919081815260200182805461062390613888565b80156106705780601f1061064557610100808354040283529160200191610670565b820191906000526020600020905b81548152906001019060200180831161065357829003601f168201915b5050505050905090565b60006106858261127e565b6106c4576040517f08c379a00000000000000000000000000000000000000000000000000000000081526004016106bb9061348f565b60405180910390fd5b6004600083815260200190815260200160002060009054906101000a900473ffffffffffffffffffffffffffffffffffffffff169050919050565b600061070a82610a6e565b90508073ffffffffffffffffffffffffffffffffffffffff168373ffffffffffffffffffffffffffffffffffffffff16141561077b576040517f08c379a0000000000000000000000000000000000000000000000000000000008152600401610772906134cf565b60405180910390fd5b8073ffffffffffffffffffffffffffffffffffffffff1661079a6112ea565b73ffffffffffffffffffffffffffffffffffffffff1614806107c957506107c8816107c36112ea565b61102c565b5b610808576040517f08c379a00000000000000000000000000000000000000000000000000000000081526004016107ff9061340f565b60405180910390fd5b61081283836112f2565b505050565b6108487ff0887ba65ee2024ea881d91b74c2450ef19e1557f03bed3ea9f16b037cbe2dc96108436112ea565b610c95565b610887576040517f08c379a000000000000000000000000000000000000000000000000000000000815260040161087e9061352f565b60405180910390fd5b6108b87ff0887ba65ee2024ea881d91b74c2450ef19e1557f03bed3ea9f16b037cbe2dc96108b36112ea565b6113ab565b6108d26108c36112ea565b6108cd600a6113df565b6113ed565b6108dc600a6115c7565b565b6108ef6108e96112ea565b826115dd565b61092e576040517f08c379a0000000000000000000000000000000000000000000000000000000008152600401610925906134ef565b60405180910390fd5b6109398383836116bb565b505050565b600060066000838152602001908152602001600020600101549050919050565b6109678261093e565b610970816117a2565b61097a83836117b6565b505050565b6109876112ea565b73ffffffffffffffffffffffffffffffffffffffff168173ffffffffffffffffffffffffffffffffffffffff16146109f4576040517f08c379a00000000000000000000000000000000000000000000000000000000081526004016109eb9061354f565b60405180910390fd5b6109fe82826113ab565b5050565b610a1d83838360405180602001604052806000815250610e94565b505050565b6000801b610a2f816117a2565b8160099080519060200190610a459291906128a4565b505050565b7fd2fe1e02027faf1843059d68959467a56049fe5514b17ab609520fb3da60476881565b6000806002600084815260200190815260200160002060009054906101000a900473ffffffffffffffffffffffffffffffffffffffff169050600073ffffffffffffffffffffffffffffffffffffffff168173ffffffffffffffffffffffffffffffffffffffff161415610b17576040517f08c379a0000000000000000000000000000000000000000000000000000000008152600401610b0e9061344f565b60405180910390fd5b80915050919050565b60098054610b2d90613888565b80601f0160208091040260200160405190810160405280929190818152602001828054610b5990613888565b8015610ba65780601f10610b7b57610100808354040283529160200191610ba6565b820191906000526020600020905b815481529060010190602001808311610b8957829003601f168201915b505050505081565b60008073ffffffffffffffffffffffffffffffffffffffff168273ffffffffffffffffffffffffffffffffffffffff161415610c1f576040517f08c379a0000000000000000000000000000000000000000000000000000000008152600401610c169061342f565b60405180910390fd5b600360008373ffffffffffffffffffffffffffffffffffffffff1673ffffffffffffffffffffffffffffffffffffffff168152602001908152602001600020549050919050565b6000610c8d82600760008681526020019081526020016000206117ea90919063ffffffff16565b905092915050565b60006006600084815260200190815260200160002060000160008373ffffffffffffffffffffffffffffffffffffffff1673ffffffffffffffffffffffffffffffffffffffff16815260200190815260200160002060009054906101000a900460ff16905092915050565b606060018054610d0f90613888565b80601f0160208091040260200160405190810160405280929190818152602001828054610d3b90613888565b8015610d885780601f10610d5d57610100808354040283529160200191610d88565b820191906000526020600020905b815481529060010190602001808311610d6b57829003601f168201915b5050505050905090565b6000801b81565b610dab610da46112ea565b8383611804565b5050565b7fd2fe1e02027faf1843059d68959467a56049fe5514b17ab609520fb3da604768610dd9816117a2565b816008600085815260200190815260200160002060006101000a81548173ffffffffffffffffffffffffffffffffffffffff021916908373ffffffffffffffffffffffffffffffffffffffff160217905550505050565b7fd2fe1e02027faf1843059d68959467a56049fe5514b17ab609520fb3da604768610e5a816117a2565b6008600083815260200190815260200160002060006101000a81549073ffffffffffffffffffffffffffffffffffffffff02191690555050565b610ea5610e9f6112ea565b836115dd565b610ee4576040517f08c379a0000000000000000000000000000000000000000000000000000000008152600401610edb906134ef565b60405180910390fd5b610ef084848484611971565b50505050565b6060610f018261127e565b610f40576040517f08c379a0000000000000000000000000000000000000000000000000000000008152600401610f37906134af565b60405180910390fd5b600060098054610f4f90613888565b905011610f91576040517f08c379a0000000000000000000000000000000000000000000000000000000008152600401610f889061350f565b60405180910390fd5b6009610f9c836119cd565b604051602001610fad929190613212565b6040516020818303038152906040529050919050565b6000610fe060076000848152602001908152602001600020611b7a565b9050919050565b7ff0887ba65ee2024ea881d91b74c2450ef19e1557f03bed3ea9f16b037cbe2dc981565b6110148261093e565b61101d816117a2565b61102783836113ab565b505050565b6000600560008473ffffffffffffffffffffffffffffffffffffffff1673ffffffffffffffffffffffffffffffffffffffff16815260200190815260200160002060008373ffffffffffffffffffffffffffffffffffffffff1673ffffffffffffffffffffffffffffffffffffffff16815260200190815260200160002060009054906101000a900460ff16905092915050565b60086020528060005260406000206000915054906101000a900473ffffffffffffffffffffffffffffffffffffffff1681565b6110fd8282610c95565b6111d05760016006600084815260200190815260200160002060000160008373ffffffffffffffffffffffffffffffffffffffff1673ffffffffffffffffffffffffffffffffffffffff16815260200190815260200160002060006101000a81548160ff0219169083151502179055506111756112ea565b73ffffffffffffffffffffffffffffffffffffffff168173ffffffffffffffffffffffffffffffffffffffff16837f2f8788117e7eff1d82e926ec794901d17c78024a50270940304540a733656f0d60405160405180910390a45b5050565b60006111fc836000018373ffffffffffffffffffffffffffffffffffffffff1660001b611b8f565b905092915050565b60007f5a05180f000000000000000000000000000000000000000000000000000000007bffffffffffffffffffffffffffffffffffffffffffffffffffffffff1916827bffffffffffffffffffffffffffffffffffffffffffffffffffffffff19161480611277575061127682611bff565b5b9050919050565b60008073ffffffffffffffffffffffffffffffffffffffff166002600084815260200190815260200160002060009054906101000a900473ffffffffffffffffffffffffffffffffffffffff1673ffffffffffffffffffffffffffffffffffffffff1614159050919050565b600033905090565b816004600083815260200190815260200160002060006101000a81548173ffffffffffffffffffffffffffffffffffffffff021916908373ffffffffffffffffffffffffffffffffffffffff160217905550808273ffffffffffffffffffffffffffffffffffffffff1661136583610a6e565b73ffffffffffffffffffffffffffffffffffffffff167f8c5be1e5ebec7d5bd14f71427d1e84f3dd0314c0f7b2291e5b200ac8c7c3b92560405160405180910390a45050565b6113b58282611c79565b6113da8160076000858152602001908152602001600020611d5b90919063ffffffff16565b505050565b600081600001549050919050565b600073ffffffffffffffffffffffffffffffffffffffff168273ffffffffffffffffffffffffffffffffffffffff16141561145d576040517f08c379a00000000000000000000000000000000000000000000000000000000081526004016114549061346f565b60405180910390fd5b6114668161127e565b156114a6576040517f08c379a000000000000000000000000000000000000000000000000000000000815260040161149d9061338f565b60405180910390fd5b6114b260008383611d8b565b6001600360008473ffffffffffffffffffffffffffffffffffffffff1673ffffffffffffffffffffffffffffffffffffffff16815260200190815260200160002060008282546115029190613689565b92505081905550816002600083815260200190815260200160002060006101000a81548173ffffffffffffffffffffffffffffffffffffffff021916908373ffffffffffffffffffffffffffffffffffffffff160217905550808273ffffffffffffffffffffffffffffffffffffffff16600073ffffffffffffffffffffffffffffffffffffffff167fddf252ad1be2c89b69c2b068fc378daa952ba7f163c4a11628f55a4df523b3ef60405160405180910390a46115c360008383611d90565b5050565b6001816000016000828254019250508190555050565b60006115e88261127e565b611627576040517f08c379a000000000000000000000000000000000000000000000000000000000815260040161161e906133ef565b60405180910390fd5b600061163283610a6e565b90508073ffffffffffffffffffffffffffffffffffffffff168473ffffffffffffffffffffffffffffffffffffffff1614806116745750611673818561102c565b5b806116b257508373ffffffffffffffffffffffffffffffffffffffff1661169a8461067a565b73ffffffffffffffffffffffffffffffffffffffff16145b91505092915050565b8173ffffffffffffffffffffffffffffffffffffffff166008600083815260200190815260200160002060009054906101000a900473ffffffffffffffffffffffffffffffffffffffff1673ffffffffffffffffffffffffffffffffffffffff161461175c576040517f08c379a00000000000000000000000000000000000000000000000000000000081526004016117539061356f565b60405180910390fd5b6008600082815260200190815260200160002060006101000a81549073ffffffffffffffffffffffffffffffffffffffff021916905561179d838383611d95565b505050565b6117b3816117ae6112ea565b611ffc565b50565b6117c082826110f3565b6117e581600760008581526020019081526020016000206111d490919063ffffffff16565b505050565b60006117f98360000183612099565b60001c905092915050565b8173ffffffffffffffffffffffffffffffffffffffff168373ffffffffffffffffffffffffffffffffffffffff161415611873576040517f08c379a000000000000000000000000000000000000000000000000000000000815260040161186a906133cf565b60405180910390fd5b80600560008573ffffffffffffffffffffffffffffffffffffffff1673ffffffffffffffffffffffffffffffffffffffff16815260200190815260200160002060008473ffffffffffffffffffffffffffffffffffffffff1673ffffffffffffffffffffffffffffffffffffffff16815260200190815260200160002060006101000a81548160ff0219169083151502179055508173ffffffffffffffffffffffffffffffffffffffff168373ffffffffffffffffffffffffffffffffffffffff167f17307eab39ab6107e8899845ad3d59bd9653f200f220920489ca2b5937696c318360405161196491906132d7565b60405180910390a3505050565b61197c8484846116bb565b611988848484846120ea565b6119c7576040517f08c379a00000000000000000000000000000000000000000000000000000000081526004016119be9061334f565b60405180910390fd5b50505050565b60606000821415611a15576040518060400160405280600181526020017f30000000000000000000000000000000000000000000000000000000000000008152509050611b75565b600082905060005b60008214611a47578080611a30906138eb565b915050600a82611a4091906136df565b9150611a1d565b60008167ffffffffffffffff811115611a89577f4e487b7100000000000000000000000000000000000000000000000000000000600052604160045260246000fd5b6040519080825280601f01601f191660200182016040528015611abb5781602001600182028036833780820191505090505b5090505b60008514611b6e57600182611ad4919061376a565b9150600a85611ae39190613934565b6030611aef9190613689565b60f81b818381518110611b2b577f4e487b7100000000000000000000000000000000000000000000000000000000600052603260045260246000fd5b60200101907effffffffffffffffffffffffffffffffffffffffffffffffffffffffffffff1916908160001a905350600a85611b6791906136df565b9450611abf565b8093505050505b919050565b6000611b8882600001612281565b9050919050565b6000611b9b8383612292565b611bf4578260000182908060018154018082558091505060019003906000526020600020016000909190919091505582600001805490508360010160008481526020019081526020016000208190555060019050611bf9565b600090505b92915050565b60007f7965db0b000000000000000000000000000000000000000000000000000000007bffffffffffffffffffffffffffffffffffffffffffffffffffffffff1916827bffffffffffffffffffffffffffffffffffffffffffffffffffffffff19161480611c725750611c71826122b5565b5b9050919050565b611c838282610c95565b15611d575760006006600084815260200190815260200160002060000160008373ffffffffffffffffffffffffffffffffffffffff1673ffffffffffffffffffffffffffffffffffffffff16815260200190815260200160002060006101000a81548160ff021916908315150217905550611cfc6112ea565b73ffffffffffffffffffffffffffffffffffffffff168173ffffffffffffffffffffffffffffffffffffffff16837ff6391f5c32d9c69d2a47ea670b442974b53935d1edc7fd64eb21e047a839171b60405160405180910390a45b5050565b6000611d83836000018373ffffffffffffffffffffffffffffffffffffffff1660001b612397565b905092915050565b505050565b505050565b8273ffffffffffffffffffffffffffffffffffffffff16611db582610a6e565b73ffffffffffffffffffffffffffffffffffffffff1614611e0b576040517f08c379a0000000000000000000000000000000000000000000000000000000008152600401611e029061336f565b60405180910390fd5b600073ffffffffffffffffffffffffffffffffffffffff168273ffffffffffffffffffffffffffffffffffffffff161415611e7b576040517f08c379a0000000000000000000000000000000000000000000000000000000008152600401611e72906133af565b60405180910390fd5b611e86838383611d8b565b611e916000826112f2565b6001600360008573ffffffffffffffffffffffffffffffffffffffff1673ffffffffffffffffffffffffffffffffffffffff1681526020019081526020016000206000828254611ee1919061376a565b925050819055506001600360008473ffffffffffffffffffffffffffffffffffffffff1673ffffffffffffffffffffffffffffffffffffffff1681526020019081526020016000206000828254611f389190613689565b92505081905550816002600083815260200190815260200160002060006101000a81548173ffffffffffffffffffffffffffffffffffffffff021916908373ffffffffffffffffffffffffffffffffffffffff160217905550808273ffffffffffffffffffffffffffffffffffffffff168473ffffffffffffffffffffffffffffffffffffffff167fddf252ad1be2c89b69c2b068fc378daa952ba7f163c4a11628f55a4df523b3ef60405160405180910390a4611ff7838383611d90565b505050565b6120068282610c95565b6120955761202b8173ffffffffffffffffffffffffffffffffffffffff16601461251d565b6120398360001c602061251d565b60405160200161204a929190613236565b6040516020818303038152906040526040517f08c379a000000000000000000000000000000000000000000000000000000000815260040161208c919061330d565b60405180910390fd5b5050565b60008260000182815481106120d7577f4e487b7100000000000000000000000000000000000000000000000000000000600052603260045260246000fd5b9060005260206000200154905092915050565b600061210b8473ffffffffffffffffffffffffffffffffffffffff16612817565b15612274578373ffffffffffffffffffffffffffffffffffffffff1663150b7a026121346112ea565b8786866040518563ffffffff1660e01b8152600401612156949392919061328b565b602060405180830381600087803b15801561217057600080fd5b505af19250505080156121a157506040513d601f19601f8201168201806040525081019061219e9190612d06565b60015b612224573d80600081146121d1576040519150601f19603f3d011682016040523d82523d6000602084013e6121d6565b606091505b5060008151141561221c576040517f08c379a00000000000000000000000000000000000000000000000000000000081526004016122139061334f565b60405180910390fd5b805181602001fd5b63150b7a0260e01b7bffffffffffffffffffffffffffffffffffffffffffffffffffffffff1916817bffffffffffffffffffffffffffffffffffffffffffffffffffffffff191614915050612279565b600190505b949350505050565b600081600001805490509050919050565b600080836001016000848152602001908152602001600020541415905092915050565b60007f80ac58cd000000000000000000000000000000000000000000000000000000007bffffffffffffffffffffffffffffffffffffffffffffffffffffffff1916827bffffffffffffffffffffffffffffffffffffffffffffffffffffffff1916148061238057507f5b5e139f000000000000000000000000000000000000000000000000000000007bffffffffffffffffffffffffffffffffffffffffffffffffffffffff1916827bffffffffffffffffffffffffffffffffffffffffffffffffffffffff1916145b80612390575061238f8261283a565b5b9050919050565b600080836001016000848152602001908152602001600020549050600081146125115760006001826123c9919061376a565b90506000600186600001805490506123e1919061376a565b905081811461249c576000866000018281548110612428577f4e487b7100000000000000000000000000000000000000000000000000000000600052603260045260246000fd5b9060005260206000200154905080876000018481548110612472577f4e487b7100000000000000000000000000000000000000000000000000000000600052603260045260246000fd5b90600052602060002001819055508387600101600083815260200190815260200160002081905550505b856000018054806124d6577f4e487b7100000000000000000000000000000000000000000000000000000000600052603160045260246000fd5b600190038181906000526020600020016000905590558560010160008681526020019081526020016000206000905560019350505050612517565b60009150505b92915050565b6060600060028360026125309190613710565b61253a9190613689565b67ffffffffffffffff811115612579577f4e487b7100000000000000000000000000000000000000000000000000000000600052604160045260246000fd5b6040519080825280601f01601f1916602001820160405280156125ab5781602001600182028036833780820191505090505b5090507f300000000000000000000000000000000000000000000000000000000000000081600081518110612609577f4e487b7100000000000000000000000000000000000000000000000000000000600052603260045260246000fd5b60200101907effffffffffffffffffffffffffffffffffffffffffffffffffffffffffffff1916908160001a9053507f780000000000000000000000000000000000000000000000000000000000000081600181518110612693577f4e487b7100000000000000000000000000000000000000000000000000000000600052603260045260246000fd5b60200101907effffffffffffffffffffffffffffffffffffffffffffffffffffffffffffff1916908160001a905350600060018460026126d39190613710565b6126dd9190613689565b90505b60018111156127c9577f3031323334353637383961626364656600000000000000000000000000000000600f861660108110612745577f4e487b7100000000000000000000000000000000000000000000000000000000600052603260045260246000fd5b1a60f81b828281518110612782577f4e487b7100000000000000000000000000000000000000000000000000000000600052603260045260246000fd5b60200101907effffffffffffffffffffffffffffffffffffffffffffffffffffffffffffff1916908160001a905350600485901c9450806127c29061385e565b90506126e0565b506000841461280d576040517f08c379a00000000000000000000000000000000000000000000000000000000081526004016128049061332f565b60405180910390fd5b8091505092915050565b6000808273ffffffffffffffffffffffffffffffffffffffff163b119050919050565b60007f01ffc9a7000000000000000000000000000000000000000000000000000000007bffffffffffffffffffffffffffffffffffffffffffffffffffffffff1916827bffffffffffffffffffffffffffffffffffffffffffffffffffffffff1916149050919050565b8280546128b090613888565b90600052602060002090601f0160209004810192826128d25760008555612919565b82601f106128eb57805160ff1916838001178555612919565b82800160010185558215612919579182015b828111156129185782518255916020019190600101906128fd565b5b509050612926919061292a565b5090565b5b8082111561294357600081600090555060010161292b565b5090565b600061295a612955846135cf565b6135aa565b90508281526020810184848401111561297257600080fd5b61297d84828561381c565b509392505050565b600061299861299384613600565b6135aa565b9050828152602081018484840111156129b057600080fd5b6129bb84828561381c565b509392505050565b6000813590506129d281613fa3565b92915050565b6000813590506129e781613fba565b92915050565b6000813590506129fc81613fd1565b92915050565b600081359050612a1181613fe8565b92915050565b600081519050612a2681613fe8565b92915050565b600082601f830112612a3d57600080fd5b8135612a4d848260208601612947565b91505092915050565b600082601f830112612a6757600080fd5b8135612a77848260208601612985565b91505092915050565b600081359050612a8f81613fff565b92915050565b600060208284031215612aa757600080fd5b6000612ab5848285016129c3565b91505092915050565b60008060408385031215612ad157600080fd5b6000612adf858286016129c3565b9250506020612af0858286016129c3565b9150509250929050565b600080600060608486031215612b0f57600080fd5b6000612b1d868287016129c3565b9350506020612b2e868287016129c3565b9250506040612b3f86828701612a80565b9150509250925092565b60008060008060808587031215612b5f57600080fd5b6000612b6d878288016129c3565b9450506020612b7e878288016129c3565b9350506040612b8f87828801612a80565b925050606085013567ffffffffffffffff811115612bac57600080fd5b612bb887828801612a2c565b91505092959194509250565b60008060408385031215612bd757600080fd5b6000612be5858286016129c3565b9250506020612bf6858286016129d8565b9150509250929050565b60008060408385031215612c1357600080fd5b6000612c21858286016129c3565b9250506020612c3285828601612a80565b9150509250929050565b600060208284031215612c4e57600080fd5b6000612c5c848285016129ed565b91505092915050565b60008060408385031215612c7857600080fd5b6000612c86858286016129ed565b9250506020612c97858286016129c3565b9150509250929050565b60008060408385031215612cb457600080fd5b6000612cc2858286016129ed565b9250506020612cd385828601612a80565b9150509250929050565b600060208284031215612cef57600080fd5b6000612cfd84828501612a02565b91505092915050565b600060208284031215612d1857600080fd5b6000612d2684828501612a17565b91505092915050565b600060208284031215612d4157600080fd5b600082013567ffffffffffffffff811115612d5b57600080fd5b612d6784828501612a56565b91505092915050565b600060208284031215612d8257600080fd5b6000612d9084828501612a80565b91505092915050565b60008060408385031215612dac57600080fd5b6000612dba85828601612a80565b9250506020612dcb858286016129c3565b9150509250929050565b612dde8161379e565b82525050565b612ded816137b0565b82525050565b612dfc816137bc565b82525050565b6000612e0d82613646565b612e17818561365c565b9350612e2781856020860161382b565b612e3081613a21565b840191505092915050565b6000612e4682613651565b612e50818561366d565b9350612e6081856020860161382b565b612e6981613a21565b840191505092915050565b6000612e7f82613651565b612e89818561367e565b9350612e9981856020860161382b565b80840191505092915050565b60008154612eb281613888565b612ebc818661367e565b94506001821660008114612ed75760018114612ee857612f1b565b60ff19831686528186019350612f1b565b612ef185613631565b60005b83811015612f1357815481890152600182019150602081019050612ef4565b838801955050505b50505092915050565b6000612f3160208361366d565b9150612f3c82613a32565b602082019050919050565b6000612f5460328361366d565b9150612f5f82613a5b565b604082019050919050565b6000612f7760258361366d565b9150612f8282613aaa565b604082019050919050565b6000612f9a601c8361366d565b9150612fa582613af9565b602082019050919050565b6000612fbd60248361366d565b9150612fc882613b22565b604082019050919050565b6000612fe060198361366d565b9150612feb82613b71565b602082019050919050565b6000613003602c8361366d565b915061300e82613b9a565b604082019050919050565b600061302660388361366d565b915061303182613be9565b604082019050919050565b6000613049602a8361366d565b915061305482613c38565b604082019050919050565b600061306c60298361366d565b915061307782613c87565b604082019050919050565b600061308f60208361366d565b915061309a82613cd6565b602082019050919050565b60006130b2602c8361366d565b91506130bd82613cff565b604082019050919050565b60006130d5602c8361366d565b91506130e082613d4e565b604082019050919050565b60006130f860218361366d565b915061310382613d9d565b604082019050919050565b600061311b60318361366d565b915061312682613dec565b604082019050919050565b600061313e60178361367e565b915061314982613e3b565b601782019050919050565b600061316160208361366d565b915061316c82613e64565b602082019050919050565b6000613184602a8361366d565b915061318f82613e8d565b604082019050919050565b60006131a760118361367e565b91506131b282613edc565b601182019050919050565b60006131ca602f8361366d565b91506131d582613f05565b604082019050919050565b60006131ed602f8361366d565b91506131f882613f54565b604082019050919050565b61320c81613812565b82525050565b600061321e8285612ea5565b915061322a8284612e74565b91508190509392505050565b600061324182613131565b915061324d8285612e74565b91506132588261319a565b91506132648284612e74565b91508190509392505050565b60006020820190506132856000830184612dd5565b92915050565b60006080820190506132a06000830187612dd5565b6132ad6020830186612dd5565b6132ba6040830185613203565b81810360608301526132cc8184612e02565b905095945050505050565b60006020820190506132ec6000830184612de4565b92915050565b60006020820190506133076000830184612df3565b92915050565b600060208201905081810360008301526133278184612e3b565b905092915050565b6000602082019050818103600083015261334881612f24565b9050919050565b6000602082019050818103600083015261336881612f47565b9050919050565b6000602082019050818103600083015261338881612f6a565b9050919050565b600060208201905081810360008301526133a881612f8d565b9050919050565b600060208201905081810360008301526133c881612fb0565b9050919050565b600060208201905081810360008301526133e881612fd3565b9050919050565b6000602082019050818103600083015261340881612ff6565b9050919050565b6000602082019050818103600083015261342881613019565b9050919050565b600060208201905081810360008301526134488161303c565b9050919050565b600060208201905081810360008301526134688161305f565b9050919050565b6000602082019050818103600083015261348881613082565b9050919050565b600060208201905081810360008301526134a8816130a5565b9050919050565b600060208201905081810360008301526134c8816130c8565b9050919050565b600060208201905081810360008301526134e8816130eb565b9050919050565b600060208201905081810360008301526135088161310e565b9050919050565b6000602082019050818103600083015261352881613154565b9050919050565b6000602082019050818103600083015261354881613177565b9050919050565b60006020820190508181036000830152613568816131bd565b9050919050565b60006020820190508181036000830152613588816131e0565b9050919050565b60006020820190506135a46000830184613203565b92915050565b60006135b46135c5565b90506135c082826138ba565b919050565b6000604051905090565b600067ffffffffffffffff8211156135ea576135e96139f2565b5b6135f382613a21565b9050602081019050919050565b600067ffffffffffffffff82111561361b5761361a6139f2565b5b61362482613a21565b9050602081019050919050565b60008190508160005260206000209050919050565b600081519050919050565b600081519050919050565b600082825260208201905092915050565b600082825260208201905092915050565b600081905092915050565b600061369482613812565b915061369f83613812565b9250827fffffffffffffffffffffffffffffffffffffffffffffffffffffffffffffffff038211156136d4576136d3613965565b5b828201905092915050565b60006136ea82613812565b91506136f583613812565b92508261370557613704613994565b5b828204905092915050565b600061371b82613812565b915061372683613812565b9250817fffffffffffffffffffffffffffffffffffffffffffffffffffffffffffffffff048311821515161561375f5761375e613965565b5b828202905092915050565b600061377582613812565b915061378083613812565b92508282101561379357613792613965565b5b828203905092915050565b60006137a9826137f2565b9050919050565b60008115159050919050565b6000819050919050565b60007fffffffff0000000000000000000000000000000000000000000000000000000082169050919050565b600073ffffffffffffffffffffffffffffffffffffffff82169050919050565b6000819050919050565b82818337600083830152505050565b60005b8381101561384957808201518184015260208101905061382e565b83811115613858576000848401525b50505050565b600061386982613812565b9150600082141561387d5761387c613965565b5b600182039050919050565b600060028204905060018216806138a057607f821691505b602082108114156138b4576138b36139c3565b5b50919050565b6138c382613a21565b810181811067ffffffffffffffff821117156138e2576138e16139f2565b5b80604052505050565b60006138f682613812565b91507fffffffffffffffffffffffffffffffffffffffffffffffffffffffffffffffff82141561392957613928613965565b5b600182019050919050565b600061393f82613812565b915061394a83613812565b92508261395a57613959613994565b5b828206905092915050565b7f4e487b7100000000000000000000000000000000000000000000000000000000600052601160045260246000fd5b7f4e487b7100000000000000000000000000000000000000000000000000000000600052601260045260246000fd5b7f4e487b7100000000000000000000000000000000000000000000000000000000600052602260045260246000fd5b7f4e487b7100000000000000000000000000000000000000000000000000000000600052604160045260246000fd5b6000601f19601f8301169050919050565b7f537472696e67733a20686578206c656e67746820696e73756666696369656e74600082015250565b7f4552433732313a207472616e7366657220746f206e6f6e20455243373231526560008201527f63656976657220696d706c656d656e7465720000000000000000000000000000602082015250565b7f4552433732313a207472616e736665722066726f6d20696e636f72726563742060008201527f6f776e6572000000000000000000000000000000000000000000000000000000602082015250565b7f4552433732313a20746f6b656e20616c7265616479206d696e74656400000000600082015250565b7f4552433732313a207472616e7366657220746f20746865207a65726f2061646460008201527f7265737300000000000000000000000000000000000000000000000000000000602082015250565b7f4552433732313a20617070726f766520746f2063616c6c657200000000000000600082015250565b7f4552433732313a206f70657261746f7220717565727920666f72206e6f6e657860008201527f697374656e7420746f6b656e0000000000000000000000000000000000000000602082015250565b7f4552433732313a20617070726f76652063616c6c6572206973206e6f74206f7760008201527f6e6572206e6f7220617070726f76656420666f7220616c6c0000000000000000602082015250565b7f4552433732313a2062616c616e636520717565727920666f7220746865207a6560008201527f726f206164647265737300000000000000000000000000000000000000000000602082015250565b7f4552433732313a206f776e657220717565727920666f72206e6f6e657869737460008201527f656e7420746f6b656e0000000000000000000000000000000000000000000000602082015250565b7f4552433732313a206d696e7420746f20746865207a65726f2061646472657373600082015250565b7f4552433732313a20617070726f76656420717565727920666f72206e6f6e657860008201527f697374656e7420746f6b656e0000000000000000000000000000000000000000602082015250565b7f4f75746c696572734e46543a2055524920717565727920666f72206e6f6e657860008201527f697374656e7420746f6b656e0000000000000000000000000000000000000000602082015250565b7f4552433732313a20617070726f76616c20746f2063757272656e74206f776e6560008201527f7200000000000000000000000000000000000000000000000000000000000000602082015250565b7f4552433732313a207472616e736665722063616c6c6572206973206e6f74206f60008201527f776e6572206e6f7220617070726f766564000000000000000000000000000000602082015250565b7f416363657373436f6e74726f6c3a206163636f756e7420000000000000000000600082015250565b7f4f75746c696572734e46543a2062617365555249206d75737420626520736574600082015250565b7f4f75746c696572734e46543a206d7573742068617665206d696e74657220726f60008201527f6c6520746f206d696e7400000000000000000000000000000000000000000000602082015250565b7f206973206d697373696e6720726f6c6520000000000000000000000000000000600082015250565b7f416363657373436f6e74726f6c3a2063616e206f6e6c792072656e6f756e636560008201527f20726f6c657320666f722073656c660000000000000000000000000000000000602082015250565b7f4552433732315472616e73666572526573747269637465643a207472616e736660008201527f6572206e6f7420617070726f7665640000000000000000000000000000000000602082015250565b613fac8161379e565b8114613fb757600080fd5b50565b613fc3816137b0565b8114613fce57600080fd5b50565b613fda816137bc565b8114613fe557600080fd5b50565b613ff1816137c6565b8114613ffc57600080fd5b50565b61400881613812565b811461401357600080fd5b5056fea26469706673582212209c11e85fe549549bd096e282ee13b3b1d1d9506e263672e62c98c5320a1b323764736f6c63430008040033",
  "devdoc": {
    "kind": "dev",
    "methods": {
      "approve(address,uint256)": {
        "details": "See {IERC721-approve}."
      },
      "balanceOf(address)": {
        "details": "See {IERC721-balanceOf}."
      },
      "getApproved(uint256)": {
        "details": "See {IERC721-getApproved}."
      },
      "getRoleAdmin(bytes32)": {
        "details": "Returns the admin role that controls `role`. See {grantRole} and {revokeRole}. To change a role's admin, use {_setRoleAdmin}."
      },
      "getRoleMember(bytes32,uint256)": {
        "details": "Returns one of the accounts that have `role`. `index` must be a value between 0 and {getRoleMemberCount}, non-inclusive. Role bearers are not sorted in any particular way, and their ordering may change at any point. WARNING: When using {getRoleMember} and {getRoleMemberCount}, make sure you perform all queries on the same block. See the following https://forum.openzeppelin.com/t/iterating-over-elements-on-enumerableset-in-openzeppelin-contracts/2296[forum post] for more information."
      },
      "getRoleMemberCount(bytes32)": {
        "details": "Returns the number of accounts that have `role`. Can be used together with {getRoleMember} to enumerate all bearers of a role."
      },
      "grantRole(bytes32,address)": {
        "details": "Grants `role` to `account`. If `account` had not been already granted `role`, emits a {RoleGranted} event. Requirements: - the caller must have ``role``'s admin role."
      },
      "hasRole(bytes32,address)": {
        "details": "Returns `true` if `account` has been granted `role`."
      },
      "isApprovedForAll(address,address)": {
        "details": "See {IERC721-isApprovedForAll}."
      },
      "name()": {
        "details": "See {IERC721Metadata-name}."
      },
      "ownerOf(uint256)": {
        "details": "See {IERC721-ownerOf}."
      },
      "renounceRole(bytes32,address)": {
        "details": "Revokes `role` from the calling account. Roles are often managed via {grantRole} and {revokeRole}: this function's purpose is to provide a mechanism for accounts to lose their privileges if they are compromised (such as when a trusted device is misplaced). If the calling account had been revoked `role`, emits a {RoleRevoked} event. Requirements: - the caller must be `account`."
      },
      "revokeRole(bytes32,address)": {
        "details": "Revokes `role` from `account`. If `account` had been granted `role`, emits a {RoleRevoked} event. Requirements: - the caller must have ``role``'s admin role."
      },
      "safeTransferFrom(address,address,uint256)": {
        "details": "See {IERC721-safeTransferFrom}."
      },
      "safeTransferFrom(address,address,uint256,bytes)": {
        "details": "See {IERC721-safeTransferFrom}."
      },
      "setApprovalForAll(address,bool)": {
        "details": "See {IERC721-setApprovalForAll}."
      },
      "supportsInterface(bytes4)": {
        "details": "See {IERC165-supportsInterface}."
      },
      "symbol()": {
        "details": "See {IERC721Metadata-symbol}."
      },
      "transferFrom(address,address,uint256)": {
        "details": "See {IERC721-transferFrom}."
      }
    },
    "version": 1
  },
  "userdoc": {
    "kind": "user",
    "methods": {},
    "version": 1
  },
  "storageLayout": {
    "storage": [
      {
        "astId": 691,
        "contract": "contracts/OutliersNFT.sol:OutliersNFT",
        "label": "_name",
        "offset": 0,
        "slot": "0",
        "type": "t_string_storage"
      },
      {
        "astId": 693,
        "contract": "contracts/OutliersNFT.sol:OutliersNFT",
        "label": "_symbol",
        "offset": 0,
        "slot": "1",
        "type": "t_string_storage"
      },
      {
        "astId": 697,
        "contract": "contracts/OutliersNFT.sol:OutliersNFT",
        "label": "_owners",
        "offset": 0,
        "slot": "2",
        "type": "t_mapping(t_uint256,t_address)"
      },
      {
        "astId": 701,
        "contract": "contracts/OutliersNFT.sol:OutliersNFT",
        "label": "_balances",
        "offset": 0,
        "slot": "3",
        "type": "t_mapping(t_address,t_uint256)"
      },
      {
        "astId": 705,
        "contract": "contracts/OutliersNFT.sol:OutliersNFT",
        "label": "_tokenApprovals",
        "offset": 0,
        "slot": "4",
        "type": "t_mapping(t_uint256,t_address)"
      },
      {
        "astId": 711,
        "contract": "contracts/OutliersNFT.sol:OutliersNFT",
        "label": "_operatorApprovals",
        "offset": 0,
        "slot": "5",
        "type": "t_mapping(t_address,t_mapping(t_address,t_bool))"
      },
      {
        "astId": 147,
        "contract": "contracts/OutliersNFT.sol:OutliersNFT",
        "label": "_roles",
        "offset": 0,
        "slot": "6",
        "type": "t_mapping(t_bytes32,t_struct(RoleData)142_storage)"
      },
      {
        "astId": 461,
        "contract": "contracts/OutliersNFT.sol:OutliersNFT",
        "label": "_roleMembers",
        "offset": 0,
        "slot": "7",
        "type": "t_mapping(t_bytes32,t_struct(AddressSet)2634_storage)"
      },
      {
        "astId": 16,
        "contract": "contracts/OutliersNFT.sol:OutliersNFT",
        "label": "approvedTransferRecipients",
        "offset": 0,
        "slot": "8",
        "type": "t_mapping(t_uint256,t_address)"
      },
      {
        "astId": 2942,
        "contract": "contracts/OutliersNFT.sol:OutliersNFT",
        "label": "baseURI",
        "offset": 0,
        "slot": "9",
        "type": "t_string_storage"
      },
      {
        "astId": 2945,
        "contract": "contracts/OutliersNFT.sol:OutliersNFT",
        "label": "_tokenIdTracker",
        "offset": 0,
        "slot": "10",
        "type": "t_struct(Counter)2015_storage"
      }
    ],
    "types": {
      "t_address": {
        "encoding": "inplace",
        "label": "address",
        "numberOfBytes": "20"
      },
      "t_array(t_bytes32)dyn_storage": {
        "base": "t_bytes32",
        "encoding": "dynamic_array",
        "label": "bytes32[]",
        "numberOfBytes": "32"
      },
      "t_bool": {
        "encoding": "inplace",
        "label": "bool",
        "numberOfBytes": "1"
      },
      "t_bytes32": {
        "encoding": "inplace",
        "label": "bytes32",
        "numberOfBytes": "32"
      },
      "t_mapping(t_address,t_bool)": {
        "encoding": "mapping",
        "key": "t_address",
        "label": "mapping(address => bool)",
        "numberOfBytes": "32",
        "value": "t_bool"
      },
      "t_mapping(t_address,t_mapping(t_address,t_bool))": {
        "encoding": "mapping",
        "key": "t_address",
        "label": "mapping(address => mapping(address => bool))",
        "numberOfBytes": "32",
        "value": "t_mapping(t_address,t_bool)"
      },
      "t_mapping(t_address,t_uint256)": {
        "encoding": "mapping",
        "key": "t_address",
        "label": "mapping(address => uint256)",
        "numberOfBytes": "32",
        "value": "t_uint256"
      },
      "t_mapping(t_bytes32,t_struct(AddressSet)2634_storage)": {
        "encoding": "mapping",
        "key": "t_bytes32",
        "label": "mapping(bytes32 => struct EnumerableSet.AddressSet)",
        "numberOfBytes": "32",
        "value": "t_struct(AddressSet)2634_storage"
      },
      "t_mapping(t_bytes32,t_struct(RoleData)142_storage)": {
        "encoding": "mapping",
        "key": "t_bytes32",
        "label": "mapping(bytes32 => struct AccessControl.RoleData)",
        "numberOfBytes": "32",
        "value": "t_struct(RoleData)142_storage"
      },
      "t_mapping(t_bytes32,t_uint256)": {
        "encoding": "mapping",
        "key": "t_bytes32",
        "label": "mapping(bytes32 => uint256)",
        "numberOfBytes": "32",
        "value": "t_uint256"
      },
      "t_mapping(t_uint256,t_address)": {
        "encoding": "mapping",
        "key": "t_uint256",
        "label": "mapping(uint256 => address)",
        "numberOfBytes": "32",
        "value": "t_address"
      },
      "t_string_storage": {
        "encoding": "bytes",
        "label": "string",
        "numberOfBytes": "32"
      },
      "t_struct(AddressSet)2634_storage": {
        "encoding": "inplace",
        "label": "struct EnumerableSet.AddressSet",
        "members": [
          {
            "astId": 2633,
            "contract": "contracts/OutliersNFT.sol:OutliersNFT",
            "label": "_inner",
            "offset": 0,
            "slot": "0",
            "type": "t_struct(Set)2333_storage"
          }
        ],
        "numberOfBytes": "64"
      },
      "t_struct(Counter)2015_storage": {
        "encoding": "inplace",
        "label": "struct Counters.Counter",
        "members": [
          {
            "astId": 2014,
            "contract": "contracts/OutliersNFT.sol:OutliersNFT",
            "label": "_value",
            "offset": 0,
            "slot": "0",
            "type": "t_uint256"
          }
        ],
        "numberOfBytes": "32"
      },
      "t_struct(RoleData)142_storage": {
        "encoding": "inplace",
        "label": "struct AccessControl.RoleData",
        "members": [
          {
            "astId": 139,
            "contract": "contracts/OutliersNFT.sol:OutliersNFT",
            "label": "members",
            "offset": 0,
            "slot": "0",
            "type": "t_mapping(t_address,t_bool)"
          },
          {
            "astId": 141,
            "contract": "contracts/OutliersNFT.sol:OutliersNFT",
            "label": "adminRole",
            "offset": 0,
            "slot": "1",
            "type": "t_bytes32"
          }
        ],
        "numberOfBytes": "64"
      },
      "t_struct(Set)2333_storage": {
        "encoding": "inplace",
        "label": "struct EnumerableSet.Set",
        "members": [
          {
            "astId": 2328,
            "contract": "contracts/OutliersNFT.sol:OutliersNFT",
            "label": "_values",
            "offset": 0,
            "slot": "0",
            "type": "t_array(t_bytes32)dyn_storage"
          },
          {
            "astId": 2332,
            "contract": "contracts/OutliersNFT.sol:OutliersNFT",
            "label": "_indexes",
            "offset": 0,
            "slot": "1",
            "type": "t_mapping(t_bytes32,t_uint256)"
          }
        ],
        "numberOfBytes": "64"
      },
      "t_uint256": {
        "encoding": "inplace",
        "label": "uint256",
        "numberOfBytes": "32"
      }
    }
  }
}